:100916004100120041001A014A0007C0F9A4B0992B
:050926009282F88090B0
:0408E4007F057E000E
:1008E800EF1FAA0670011E4A600BE4FDEDC3940CCD
:0508F80050EE0D80F739
:0108FD0022D8
:0207F600A90751
:1007F800E4FBC294E91392941208E4D294E9C31377
:0D080800F90BEBB408EC7F057E000208E858
:1008C900E4FBC294ECC313FCD2943094034480FC3F
:0A08D9001208E40BEBB408EAAF04C8
:0108E30022F2
:10078A00C200D2947F0C7E001208E8C2947F507E89
:10079A00001208E8D2947F0A7E001208E8A2949216
:0607AA00001208E4A200A9
:0107B0002226
:1006A70012078A7FCC1207F67F441207F612078AD1
:1006B7007FCC1207F67FBE1207F61208C990001703
:1006C700EFF01208C9900003EFF0900017E0FE5416
:1006D7000F900013F0EEC4540FFF900017F0900036
:0806E70003E0C454F0F04FFFE2
:0106EF0022E8
:1008AD00C297E4FEEF30E004D2A38002C2A3D29738
:0B08BD00C297EFC313FF0EEEB408E972
:0108C800220D
:10081500E4FFFEEFC313FF30A3054480FF8004EF20
:0E082500547FFFD297C2970EEEB408E7C2A32D
:0108330022A2
:10092C00C293C297D293EF54FEFF1208ADAF0512DB
:05093C0008ADC293228A
:10096A00C293C297D293EF4401FF1208AD12081541
:02097A00C29326
:01097C002258
:07000300C293C297D29322C1
:1007B100E4FD7F8E12092C7D107F8012092C7D2192
:1007C1007F8212092C7D237F8412092C7D807F8EEC
:0307D10002092CEE
:0309560012096A19
:10095900EFC4540FFEEF540FFFEE75F00AA42FFFFA
:01096900226B
:1007D4007F81120956900005EFF07F83120956902D
:1007E4000011EFF07F8512096A120959900006EF93
:0107F400F014
:0107F50022E1
:080999007F167E55DEFEDFFC37
:0109A1002233
:1006F000D2A1D2A000000000000000000000000015
:1007000000000000000000000000000000000000E9
:100710000000C2A100000000000000000000000076
:1007200000000000000000000000000000000000C9
:050730000000C2A02240
:07073500EFF0E4FF120536AE
:10073C00C2A1D2A0000000000000000000000000D8
:10074C00000000000000000000000000000000009D
:05075C000000D2A12203
:10053600EF6004C2A18002D2A1000000000000000A
:1005460000000000000000000000000000000000A5
:1005560000000000000000D2A00000000000000023
:100566000000000000000000000000000000000085
:1005760000000000000000C2A0D2A10000000000A0
:100586000000000000000000000000000000000065
:0A0596000000000000000000002239
:0B05A0001206511205ABAF0512065108
:1005AB00D2A10000000000000000000000000000CD
:1005BB000000000000000000000000000000000030
:1005CB00D2A00000000000000000000000000000AE
:1005DB000000000000000000000000000000000010
:0E05EB0030A107C2A012073CC322C2A0D32237
:10065100E4FEEF30E704D2A18002C2A10000000055
:100661000000000000000000000000000000000089
:1006710000000000000000000000D2A0EF25E0FF14
:100681000000000000000000000000000000000069
:100691000000000000000000000000000000C2A0F7
:0506A1000EEEB408ADEF
:0106A6002231
:0605F9001206511205ABD1
:1005FF00E4FED2A000000000000000000000000098
:10060F0000000000000000000000000000000000DB
:10061F000000EF25E0FF30A1034401FFC2A000005E
:10062F0000000000000000000000000000000000BB
:10063F000000000000000000000000000EEEB408F3
:01064F00B1F9
:010650002287
:10085300AD071206F07F901205A012073C1206F0B6
:0E0863007F911205F9900002120735E0FF2286
:10094100AD071206F07F901206511205AB7F4012DF
:0509510005A002073CB7
:10087100AD071206F07FA01205A012073C1206F088
:0E0881007FA11205F9900014120735E0FF2246
:1008FE00AB071206F07FA01206511205ABAF031222
:08090E0005A012073C02099943
:0709A200AE071FEE70FA2200
:10083400C2C220B2197F321209A230B2FD30B20E08
:0F084400900012E004F0E0D394034002E4F022AD
:10097D00758901758CF8758A30D2AFD28CD2A922C7
:03000B000204BE2E
:1004BE00C0E0C0F0C083C082C0D075D000C000C004
:1004CE0001C002C003C004C005C006C007758CEC95
:1004DE00758A78900015E004F0E0C39464402E9085
:1004EE000000E0F4F01206A790001BEFF09000134E
:1004FE00E0FCE412036FE4FBFA797A784212025FB1
:10050E001203A3900001EFF0900015E4F0D007D095
:10051E0006D005D004D003D002D001D000D0D0D068
:08052E0082D083D0F0D0E0324E
:10000E007580FFC2B6900012E0FF60030200DD9023
:10001E00001CE0B4080040030200CF900030F82826
:10002E00287302004802005602006402006C0200AF
:10003E007A02008802009B0200B075A0C075800194
:10004E0075A0E0900006805175A0C075800275A065
:10005E00E0900006805875A0C0758004802275A0BF
:10006E00C075800875A0E0900011802D75A0C07538
:10007E00801075A0E0900011803475A0C0758020AE
:10008E0075A0E0900000E044BFF580803475A0C0FC
:10009E0075804075A0E0900005E075F00A84240795
:1000AE00801575A0C075808075A0E0900005E07584
:1000BE00F00A84740725F0F582E43400F583E0F548
:1000CE008090001CE004F0E0D394074002E4F0EFCF
:1000DE006401600302017F90001DE0146020146033
:1000EE00341460541460702404707875A0C0758048
:1000FE008075A0E0900001E075F00A84800D75A077
:10010E00C075804075A0E0900001E075F00A84741F
:10011E000725F0803675A0C075802075A0E0900090
:10012E001BE075F00A84740725F0F582E43400F5BF
:10013E0083E0547FF580802B75A0C075801075A06C
:10014E00E090001BE075F00A842407F582E4340089
:10015E00F583E0F580800C75A0C075800175A0E078
:10016E007580C690001DE004F0E0D394044002E4D4
:10017E00F0900012E06402600302020A90001EE09A
:10018E0014601914603B1460592403706175A0C08B
:10019E0075808075A0E0900019E0801175A0C07583
:1001AE00804075A0E0900019E075F00A8475F00AA1
:1001BE0084740725F0F582E43400F583E0F5808041
:1001CE002D75A0C075802075A0E0900019E075F027
:1001DE0064842407F582E43400F583E0547FF580CF
:1001EE00800C75A0C075800175A0E07580C190006F
:1001FE001EE004F0E0D394034002E4F0900012E01D
:10020E006403704C90001FE014601A04703475A0E3
:10021E00C075808075A0E0900018E075F00A8474B7
:10022E000725F0801375A0C075804075A0E0900082
:10023E0018E075F00A842407F582E43400F583E0B3
:10024E00F58090001FE004F0E0D394024002E4F049
:01025E00227D
:0C098D0075A0A0E4F580F5A07580FF22A5
:10088F0090001BE0FFC3941E4013EFFD7C007F011F
:0E089F001208FE7F01120871900018EFF0227F
:1007610012098D12097D1200031207B17F011208CF
:1007710053900019EFF01207D412000E12088F12D5
:0907810008347FFF12094180E3F6
:10025F00EC4D6011E8497017ED33EC3304600DE499
:10026F00FCFFFEFD22E933E8330470F802040F129D
:10027F0003DA58046009E4CC24815006285009029F
:10028F000419284003020416C0E0EB4A7044B980F9
:10029F0006D0E0FB020405EF4E701CBD8008EBFF9B
:1002AF00EAFEE9FD80EBE98DF0A4FEE5F0020348DC
:1002BF00E9CDF9EAFEEBFFEF89F0A4FCE5F0CE897A
:1002CF00F0A42EFFE435F0CD89F0A42DFEE435F037
:1002DF008067EF4E7005BD80D780C3EF8BF0A4AC65
:1002EF00F0EE8BF0A42CFCE435F0F8EF8AF0A42CA0
:1002FF00E5F038FCE433CB8DF0A42CFCE5F03BF8B3
:10030F00EE8AF0A42CFCE5F038F8E433CF89F0A4A2
:10031F002CFCE5F038CF3400CE89F0A42FFFE5F0A8
:10032F003EFEE433C98DF0A42EFEE5F039CD8AF000
:10033F00A42FFFE5F03EFEE43DFD33D0E0FB500778
:10034F000BBB000F020419EC2CFCEF33FFEE33FE56
:06035F00ED33FD0203F185
:1003650075F020800E75F010800575F0087D007E13
:10037500007F003392D530D503120424EC334010AE
:10038500EF33FFEE33FEED33FDEC33FCD5F0ED221C
:0E039500E5F0247EA2D513CC92E7CDCEFF2258
:1003A300EDD2E7CD33EC3392D524814006E4FFFE52
:1003B300FDFC22FCE4CFCECDCC24E0501174FF80B1
:1003C300EDC3CC13CCCD13CDCE13CECF13CF04704E
:0703D300F030D5DE02042426
:1003DA00E9D2E7C933E833F892D5EDD2E7CD33EC69
:0703EA0033FC5002B2D522E2
:1003F100EC30E7100FBF000C0EBE00080DBD00046D
:100401000BEB6014A2D5EB13FCED92E7FD2274FF18
:10041100FCFDFEFF22E480F8A2D574FF13FC7D8071
:03042100E480EF85
:03000000020432C5
:0C043200787FE4F6D8FD75812002047983
:0E042400C3E49FFFE49EFEE49DFDE49CFC22E9
:10043E00020761E493A3F8E493A34003F68001F26C
:10044E0008DFF48029E493A3F85407240CC8C333BF
:10045E00C4540F4420C8834004F456800146F6DF8E
:10046E00E4800B0102040810204080900916E47EFF
:10047E00019360BCA3FF543F30E509541FFEE49383
:10048E00A360010ECF54C025E060A840B8E493A34A
:10049E00FAE493A3F8E493A3C8C582C8CAC583CA75
:1004AE00F0A3C8C582C8CAC583CADFE9DEE780BE2D
:01092B0000CB
:00000001FF
